{
  "_format": "hh-sol-artifact-1",
  "contractName": "Land",
  "sourceName": "contracts/Land.sol",
  "abi": [
    {
      "inputs": [],
      "stateMutability": "nonpayable",
      "type": "constructor"
    },
    {
      "anonymous": false,
      "inputs": [
        {
          "indexed": false,
          "internalType": "address",
          "name": "owner",
          "type": "address"
        }
      ],
      "name": "changeLandSell",
      "type": "event"
    },
    {
      "anonymous": false,
      "inputs": [
        {
          "indexed": false,
          "internalType": "address",
          "name": "owner",
          "type": "address"
        },
        {
          "indexed": false,
          "internalType": "address",
          "name": "bidder",
          "type": "address"
        },
        {
          "indexed": false,
          "internalType": "uint256",
          "name": "amount",
          "type": "uint256"
        }
      ],
      "name": "ownerShipTranfer",
      "type": "event"
    },
    {
      "inputs": [],
      "name": "RegisteredLandCount",
      "outputs": [
        {
          "internalType": "uint256",
          "name": "",
          "type": "uint256"
        }
      ],
      "stateMutability": "view",
      "type": "function"
    },
    {
      "inputs": [],
      "name": "Registerreqcount",
      "outputs": [
        {
          "internalType": "uint256",
          "name": "",
          "type": "uint256"
        }
      ],
      "stateMutability": "view",
      "type": "function"
    },
    {
      "inputs": [
        {
          "internalType": "uint256",
          "name": "",
          "type": "uint256"
        },
        {
          "internalType": "uint256",
          "name": "",
          "type": "uint256"
        }
      ],
      "name": "Registerrequests",
      "outputs": [
        {
          "internalType": "uint256",
          "name": "id",
          "type": "uint256"
        },
        {
          "internalType": "address",
          "name": "seller",
          "type": "address"
        },
        {
          "internalType": "uint256",
          "name": "landId",
          "type": "uint256"
        }
      ],
      "stateMutability": "view",
      "type": "function"
    },
    {
      "inputs": [
        {
          "internalType": "address",
          "name": "",
          "type": "address"
        }
      ],
      "name": "UserMapping",
      "outputs": [
        {
          "internalType": "address",
          "name": "id",
          "type": "address"
        },
        {
          "internalType": "string",
          "name": "name",
          "type": "string"
        },
        {
          "internalType": "string",
          "name": "date",
          "type": "string"
        },
        {
          "internalType": "string",
          "name": "gender",
          "type": "string"
        },
        {
          "internalType": "string",
          "name": "aadharNumber",
          "type": "string"
        },
        {
          "internalType": "string",
          "name": "panNumber",
          "type": "string"
        },
        {
          "internalType": "string",
          "name": "email",
          "type": "string"
        },
        {
          "internalType": "string",
          "name": "password",
          "type": "string"
        },
        {
          "internalType": "string",
          "name": "image",
          "type": "string"
        },
        {
          "internalType": "bool",
          "name": "isloggedin",
          "type": "bool"
        }
      ],
      "stateMutability": "view",
      "type": "function"
    },
    {
      "inputs": [
        {
          "internalType": "address",
          "name": "_addr",
          "type": "address"
        },
        {
          "internalType": "uint256",
          "name": "id",
          "type": "uint256"
        }
      ],
      "name": "acceptReg",
      "outputs": [],
      "stateMutability": "nonpayable",
      "type": "function"
    },
    {
      "inputs": [
        {
          "internalType": "uint256",
          "name": "_area",
          "type": "uint256"
        },
        {
          "internalType": "string",
          "name": "_state",
          "type": "string"
        },
        {
          "internalType": "string",
          "name": "_district",
          "type": "string"
        },
        {
          "internalType": "string",
          "name": "_address",
          "type": "string"
        },
        {
          "internalType": "string",
          "name": "_propertyPID",
          "type": "string"
        },
        {
          "internalType": "string",
          "name": "_surveyNum",
          "type": "string"
        },
        {
          "internalType": "uint256",
          "name": "_landPrice",
          "type": "uint256"
        },
        {
          "internalType": "string[]",
          "name": "_files",
          "type": "string[]"
        },
        {
          "components": [
            {
              "internalType": "uint256",
              "name": "x",
              "type": "uint256"
            },
            {
              "internalType": "uint256",
              "name": "y",
              "type": "uint256"
            }
          ],
          "internalType": "struct Land.Coordinates[]",
          "name": "coordinates",
          "type": "tuple[]"
        }
      ],
      "name": "addLand",
      "outputs": [],
      "stateMutability": "nonpayable",
      "type": "function"
    },
    {
      "inputs": [
        {
          "internalType": "uint256",
          "name": "id",
          "type": "uint256"
        },
        {
          "internalType": "address",
          "name": "seller",
          "type": "address"
        }
      ],
      "name": "changeLandForSell",
      "outputs": [],
      "stateMutability": "nonpayable",
      "type": "function"
    },
    {
      "inputs": [
        {
          "internalType": "uint256",
          "name": "landId",
          "type": "uint256"
        },
        {
          "internalType": "uint256",
          "name": "closingTime",
          "type": "uint256"
        },
        {
          "internalType": "uint256",
          "name": "amount",
          "type": "uint256"
        },
        {
          "internalType": "address",
          "name": "seller",
          "type": "address"
        }
      ],
      "name": "createLandBid",
      "outputs": [],
      "stateMutability": "nonpayable",
      "type": "function"
    },
    {
      "inputs": [
        {
          "internalType": "uint256",
          "name": "landId",
          "type": "uint256"
        },
        {
          "internalType": "uint256",
          "name": "timestamp",
          "type": "uint256"
        }
      ],
      "name": "finalizeBid",
      "outputs": [],
      "stateMutability": "nonpayable",
      "type": "function"
    },
    {
      "inputs": [
        {
          "internalType": "address",
          "name": "_addr",
          "type": "address"
        }
      ],
      "name": "getAllLands",
      "outputs": [
        {
          "components": [
            {
              "internalType": "uint256",
              "name": "id",
              "type": "uint256"
            },
            {
              "internalType": "uint256",
              "name": "area",
              "type": "uint256"
            },
            {
              "internalType": "string",
              "name": "state",
              "type": "string"
            },
            {
              "internalType": "string",
              "name": "district",
              "type": "string"
            },
            {
              "internalType": "string",
              "name": "landAddress",
              "type": "string"
            },
            {
              "internalType": "string",
              "name": "propertyPID",
              "type": "string"
            },
            {
              "internalType": "string",
              "name": "surveyNum",
              "type": "string"
            },
            {
              "internalType": "uint256",
              "name": "landPrice",
              "type": "uint256"
            },
            {
              "internalType": "string[]",
              "name": "files",
              "type": "string[]"
            },
            {
              "components": [
                {
                  "internalType": "uint256",
                  "name": "x",
                  "type": "uint256"
                },
                {
                  "internalType": "uint256",
                  "name": "y",
                  "type": "uint256"
                }
              ],
              "internalType": "struct Land.Coordinates[]",
              "name": "coordinates",
              "type": "tuple[]"
            },
            {
              "internalType": "uint256",
              "name": "timestamp",
              "type": "uint256"
            },
            {
              "internalType": "bool",
              "name": "isforSell",
              "type": "bool"
            },
            {
              "internalType": "address payable",
              "name": "ownerAddress",
              "type": "address"
            },
            {
              "internalType": "bool",
              "name": "isLandVerified",
              "type": "bool"
            }
          ],
          "internalType": "struct Land.Landreg[]",
          "name": "",
          "type": "tuple[]"
        }
      ],
      "stateMutability": "view",
      "type": "function"
    },
    {
      "inputs": [
        {
          "internalType": "address",
          "name": "_addr",
          "type": "address"
        }
      ],
      "name": "getMyLands",
      "outputs": [
        {
          "components": [
            {
              "internalType": "uint256",
              "name": "id",
              "type": "uint256"
            },
            {
              "internalType": "uint256",
              "name": "area",
              "type": "uint256"
            },
            {
              "internalType": "string",
              "name": "state",
              "type": "string"
            },
            {
              "internalType": "string",
              "name": "district",
              "type": "string"
            },
            {
              "internalType": "string",
              "name": "landAddress",
              "type": "string"
            },
            {
              "internalType": "string",
              "name": "propertyPID",
              "type": "string"
            },
            {
              "internalType": "string",
              "name": "surveyNum",
              "type": "string"
            },
            {
              "internalType": "uint256",
              "name": "landPrice",
              "type": "uint256"
            },
            {
              "internalType": "string[]",
              "name": "files",
              "type": "string[]"
            },
            {
              "components": [
                {
                  "internalType": "uint256",
                  "name": "x",
                  "type": "uint256"
                },
                {
                  "internalType": "uint256",
                  "name": "y",
                  "type": "uint256"
                }
              ],
              "internalType": "struct Land.Coordinates[]",
              "name": "coordinates",
              "type": "tuple[]"
            },
            {
              "internalType": "uint256",
              "name": "timestamp",
              "type": "uint256"
            },
            {
              "internalType": "bool",
              "name": "isforSell",
              "type": "bool"
            },
            {
              "internalType": "address payable",
              "name": "ownerAddress",
              "type": "address"
            },
            {
              "internalType": "bool",
              "name": "isLandVerified",
              "type": "bool"
            }
          ],
          "internalType": "struct Land.Landreg[]",
          "name": "",
          "type": "tuple[]"
        }
      ],
      "stateMutability": "view",
      "type": "function"
    },
    {
      "inputs": [],
      "name": "getSellRequest",
      "outputs": [
        {
          "components": [
            {
              "internalType": "uint256",
              "name": "id",
              "type": "uint256"
            },
            {
              "internalType": "uint256",
              "name": "area",
              "type": "uint256"
            },
            {
              "internalType": "string",
              "name": "state",
              "type": "string"
            },
            {
              "internalType": "string",
              "name": "district",
              "type": "string"
            },
            {
              "internalType": "string",
              "name": "landAddress",
              "type": "string"
            },
            {
              "internalType": "string",
              "name": "propertyPID",
              "type": "string"
            },
            {
              "internalType": "string",
              "name": "surveyNum",
              "type": "string"
            },
            {
              "internalType": "uint256",
              "name": "landPrice",
              "type": "uint256"
            },
            {
              "internalType": "string[]",
              "name": "files",
              "type": "string[]"
            },
            {
              "components": [
                {
                  "internalType": "uint256",
                  "name": "x",
                  "type": "uint256"
                },
                {
                  "internalType": "uint256",
                  "name": "y",
                  "type": "uint256"
                }
              ],
              "internalType": "struct Land.Coordinates[]",
              "name": "coordinates",
              "type": "tuple[]"
            },
            {
              "internalType": "uint256",
              "name": "timestamp",
              "type": "uint256"
            },
            {
              "internalType": "bool",
              "name": "isforSell",
              "type": "bool"
            },
            {
              "internalType": "address payable",
              "name": "ownerAddress",
              "type": "address"
            },
            {
              "internalType": "bool",
              "name": "isLandVerified",
              "type": "bool"
            }
          ],
          "internalType": "struct Land.Landreg[]",
          "name": "",
          "type": "tuple[]"
        }
      ],
      "stateMutability": "view",
      "type": "function"
    },
    {
      "inputs": [
        {
          "internalType": "uint256",
          "name": "landId",
          "type": "uint256"
        }
      ],
      "name": "getTime",
      "outputs": [
        {
          "internalType": "uint256",
          "name": "",
          "type": "uint256"
        }
      ],
      "stateMutability": "view",
      "type": "function"
    },
    {
      "inputs": [
        {
          "internalType": "address",
          "name": "_addr",
          "type": "address"
        }
      ],
      "name": "getUser",
      "outputs": [
        {
          "components": [
            {
              "internalType": "address",
              "name": "id",
              "type": "address"
            },
            {
              "internalType": "string",
              "name": "name",
              "type": "string"
            },
            {
              "internalType": "string",
              "name": "date",
              "type": "string"
            },
            {
              "internalType": "string",
              "name": "gender",
              "type": "string"
            },
            {
              "internalType": "string",
              "name": "aadharNumber",
              "type": "string"
            },
            {
              "internalType": "string",
              "name": "panNumber",
              "type": "string"
            },
            {
              "internalType": "string",
              "name": "email",
              "type": "string"
            },
            {
              "internalType": "string",
              "name": "password",
              "type": "string"
            },
            {
              "internalType": "string",
              "name": "image",
              "type": "string"
            },
            {
              "internalType": "bool",
              "name": "isloggedin",
              "type": "bool"
            }
          ],
          "internalType": "struct Land.User",
          "name": "",
          "type": "tuple"
        }
      ],
      "stateMutability": "view",
      "type": "function"
    },
    {
      "inputs": [
        {
          "internalType": "uint256",
          "name": "landId",
          "type": "uint256"
        }
      ],
      "name": "isBid",
      "outputs": [
        {
          "internalType": "bool",
          "name": "",
          "type": "bool"
        },
        {
          "internalType": "uint256",
          "name": "",
          "type": "uint256"
        }
      ],
      "stateMutability": "view",
      "type": "function"
    },
    {
      "inputs": [
        {
          "internalType": "address",
          "name": "_addr",
          "type": "address"
        }
      ],
      "name": "isContractOwner",
      "outputs": [
        {
          "internalType": "bool",
          "name": "",
          "type": "bool"
        }
      ],
      "stateMutability": "view",
      "type": "function"
    },
    {
      "inputs": [
        {
          "internalType": "address",
          "name": "_element",
          "type": "address"
        }
      ],
      "name": "isElementPresent",
      "outputs": [
        {
          "internalType": "bool",
          "name": "",
          "type": "bool"
        }
      ],
      "stateMutability": "view",
      "type": "function"
    },
    {
      "inputs": [],
      "name": "landOnSaleCount",
      "outputs": [
        {
          "internalType": "uint256",
          "name": "",
          "type": "uint256"
        }
      ],
      "stateMutability": "view",
      "type": "function"
    },
    {
      "inputs": [
        {
          "internalType": "address",
          "name": "",
          "type": "address"
        },
        {
          "internalType": "uint256",
          "name": "",
          "type": "uint256"
        }
      ],
      "name": "lands",
      "outputs": [
        {
          "internalType": "uint256",
          "name": "id",
          "type": "uint256"
        },
        {
          "internalType": "uint256",
          "name": "area",
          "type": "uint256"
        },
        {
          "internalType": "string",
          "name": "state",
          "type": "string"
        },
        {
          "internalType": "string",
          "name": "district",
          "type": "string"
        },
        {
          "internalType": "string",
          "name": "landAddress",
          "type": "string"
        },
        {
          "internalType": "string",
          "name": "propertyPID",
          "type": "string"
        },
        {
          "internalType": "string",
          "name": "surveyNum",
          "type": "string"
        },
        {
          "internalType": "uint256",
          "name": "landPrice",
          "type": "uint256"
        },
        {
          "internalType": "uint256",
          "name": "timestamp",
          "type": "uint256"
        },
        {
          "internalType": "bool",
          "name": "isforSell",
          "type": "bool"
        },
        {
          "internalType": "address payable",
          "name": "ownerAddress",
          "type": "address"
        },
        {
          "internalType": "bool",
          "name": "isLandVerified",
          "type": "bool"
        }
      ],
      "stateMutability": "view",
      "type": "function"
    },
    {
      "inputs": [],
      "name": "landsCount",
      "outputs": [
        {
          "internalType": "uint256",
          "name": "",
          "type": "uint256"
        }
      ],
      "stateMutability": "view",
      "type": "function"
    },
    {
      "inputs": [
        {
          "internalType": "address",
          "name": "_addr",
          "type": "address"
        }
      ],
      "name": "login",
      "outputs": [
        {
          "internalType": "bool",
          "name": "",
          "type": "bool"
        }
      ],
      "stateMutability": "nonpayable",
      "type": "function"
    },
    {
      "inputs": [
        {
          "internalType": "address",
          "name": "_addr",
          "type": "address"
        }
      ],
      "name": "logout",
      "outputs": [],
      "stateMutability": "nonpayable",
      "type": "function"
    },
    {
      "inputs": [
        {
          "internalType": "uint256",
          "name": "",
          "type": "uint256"
        }
      ],
      "name": "ownerMapping",
      "outputs": [
        {
          "internalType": "address",
          "name": "",
          "type": "address"
        }
      ],
      "stateMutability": "view",
      "type": "function"
    },
    {
      "inputs": [
        {
          "internalType": "uint256",
          "name": "landId",
          "type": "uint256"
        }
      ],
      "name": "placeBid",
      "outputs": [],
      "stateMutability": "payable",
      "type": "function"
    },
    {
      "inputs": [
        {
          "internalType": "string",
          "name": "_name",
          "type": "string"
        },
        {
          "internalType": "string",
          "name": "_date",
          "type": "string"
        },
        {
          "internalType": "string",
          "name": "_gender",
          "type": "string"
        },
        {
          "internalType": "string",
          "name": "_aadharNumber",
          "type": "string"
        },
        {
          "internalType": "string",
          "name": "_panNumber",
          "type": "string"
        },
        {
          "internalType": "string",
          "name": "_email",
          "type": "string"
        },
        {
          "internalType": "string",
          "name": "_password",
          "type": "string"
        },
        {
          "internalType": "string",
          "name": "_image",
          "type": "string"
        }
      ],
      "name": "registerUser",
      "outputs": [],
      "stateMutability": "nonpayable",
      "type": "function"
    },
    {
      "inputs": [
        {
          "internalType": "uint256",
          "name": "index",
          "type": "uint256"
        }
      ],
      "name": "rejectReg",
      "outputs": [],
      "stateMutability": "nonpayable",
      "type": "function"
    },
    {
      "inputs": [
        {
          "internalType": "string",
          "name": "password",
          "type": "string"
        }
      ],
      "name": "resetPass",
      "outputs": [],
      "stateMutability": "nonpayable",
      "type": "function"
    },
    {
      "inputs": [],
      "name": "userCount",
      "outputs": [
        {
          "internalType": "uint256",
          "name": "",
          "type": "uint256"
        }
      ],
      "stateMutability": "view",
      "type": "function"
    }
  ],
  "bytecode": "0x60806040523480156200001157600080fd5b50600080546001600160a01b03191633908117909155604051620000359062000089565b6001600160a01b039091168152602001604051809103906000f08015801562000062573d6000803e3d6000fd5b50600180546001600160a01b0319166001600160a01b039290921691909117905562000097565b610d608062004c4683390190565b614b9f80620000a76000396000f3fe6080604052600436106101b75760003560e01c80639979ef45116100ec578063b9885c8b1161008a578063d61ff68c11610064578063d61ff68c14610504578063de1176881461053a578063e179029d14610569578063f7c51066146105a057600080fd5b8063b9885c8b146104a4578063c78e7dbf146104c4578063cc51f9b9146104e457600080fd5b8063a2589544116100c6578063a25895441461042f578063a6a6ab6c1461044f578063a90f28cd1461046f578063ad48ee371461048f57600080fd5b80639979ef45146103d9578063997c2740146103ec578063a043ccae1461041957600080fd5b8063625f9e1f116101595780637362782611610133578063736278261461034b578063747105df1461036b578063756efcf7146103815780638432ce54146103b957600080fd5b8063625f9e1f146102e857806367601dd1146102fe5780636f77926b1461031e57600080fd5b806329d262961161019557806329d262961461023e57806335a6861a146102605780633aabdf921461029057806350471e4d146102c857600080fd5b806307973ccf146101bc5780630fd9ab83146101e55780631c9afd0f14610228575b600080fd5b3480156101c857600080fd5b506101d260025481565b6040519081526020015b60405180910390f35b3480156101f157600080fd5b50610205610200366004613d5e565b6105c0565b604080519384526001600160a01b039092166020840152908201526060016101dc565b34801561023457600080fd5b506101d260035481565b34801561024a57600080fd5b5061025e610259366004613d5e565b61060c565b005b34801561026c57600080fd5b5061028061027b366004613d95565b6106c7565b60405190151581526020016101dc565b34801561029c57600080fd5b506102b06102ab366004613db2565b610791565b6040516001600160a01b0390911681526020016101dc565b3480156102d457600080fd5b5061025e6102e3366004613e82565b6107bb565b3480156102f457600080fd5b506101d260045481565b34801561030a57600080fd5b5061025e610319366004613ebf565b61086e565b34801561032a57600080fd5b5061033e610339366004613d95565b610b0a565b6040516101dc9190614045565b34801561035757600080fd5b506101d2610366366004613db2565b611046565b34801561037757600080fd5b506101d260055481565b34801561038d57600080fd5b506103a161039c366004614164565b6110ba565b6040516101dc9c9b9a99989796959493929190614190565b3480156103c557600080fd5b5061025e6103d4366004613db2565b6113f2565b61025e6103e7366004613db2565b611624565b3480156103f857600080fd5b5061040c610407366004613d95565b6116c2565b6040516101dc91906142e1565b34801561042557600080fd5b506101d260065481565b34801561043b57600080fd5b5061025e61044a36600461453e565b611d71565b34801561045b57600080fd5b5061040c61046a366004613d95565b6120e4565b34801561047b57600080fd5b5061025e61048a366004614677565b612620565b34801561049b57600080fd5b5061040c612740565b3480156104b057600080fd5b5061025e6104bf366004614164565b612e4d565b3480156104d057600080fd5b5061025e6104df3660046146b8565b612fc1565b3480156104f057600080fd5b5061025e6104ff366004613d95565b6130ac565b34801561051057600080fd5b5061052461051f366004613d95565b613110565b6040516101dc9a999897969594939291906146e8565b34801561054657600080fd5b50610280610555366004613d95565b6000546001600160a01b0391821691161490565b34801561057557600080fd5b50610589610584366004613db2565b6135aa565b6040805192151583526020830191909152016101dc565b3480156105ac57600080fd5b506102806105bb366004613d95565b61362a565b600b60205281600052604060002081815481106105dc57600080fd5b60009182526020909120600390910201805460018201546002909201549093506001600160a01b03909116915083565b6001546040516314e9314b60e11b815260048101849052602481018390526000918291829182916001600160a01b03909116906329d26296906044016080604051808303816000875af1158015610667573d6000803e3d6000fd5b505050506040513d601f19601f8201168201806040525081019061068b91906147bb565b929650909450925090506001600160a01b038316156106b5576106b084848484613693565b6106bf565b6106bf8483612fc1565b505050505050565b6001600160a01b038116600090815260096020526040812054829060ff16151560011461070f5760405162461bcd60e51b815260040161070690614804565b60405180910390fd5b6001600160a01b03831660009081526009602052604090205460ff16801561075157506001600160a01b03808416600081815260076020526040902054909116145b15610786576001600160a01b0383166000908152600760205260409020600901805460ff19166001908117909155915061078b565b600091505b50919050565b600c81815481106107a157600080fd5b6000918252602090912001546001600160a01b0316905081565b3360008181526009602052604090205460ff1615156001146107ef5760405162461bcd60e51b815260040161070690614804565b336000818152600760205260409020546001600160a01b03161461084c5760405162461bcd60e51b815260206004820152601460248201527341646472657373206e6f74206f776e656420627960601b6044820152606401610706565b3360009081526007602081905260409091200161086983826148a7565b505050565b3360009081526009602052604090205460ff16156108c35760405162461bcd60e51b8152602060048201526012602482015271105b1c9958591e481c9959da5cdd195c995960721b6044820152606401610706565b6000546001600160a01b0316330361091d5760405162461bcd60e51b815260206004820152601e60248201527f636f6e7472616374206f776e65722063616e6e6f7420726567697374657200006044820152606401610706565b336000908152600960205260408120805460ff1916600117905560028054916109458361497d565b909155505060025460009081526008602090815260408083208054336001600160a01b031991821681179092558251610140810184528281528085018e81528185018e9052606082018d9052608082018c905260a082018b905260c082018a905260e08201899052610100820188905260016101208301819052938752600790955292909420825181549095166001600160a01b0390951694909417845591519092918201906109f590826148a7565b5060408201516002820190610a0a90826148a7565b5060608201516003820190610a1f90826148a7565b5060808201516004820190610a3490826148a7565b5060a08201516005820190610a4990826148a7565b5060c08201516006820190610a5e90826148a7565b5060e08201516007820190610a7390826148a7565b506101008201516008820190610a8990826148a7565b5061012091909101516009909101805460ff1916911515919091179055610aaf336106c7565b50610ab93361362a565b610b0057600c80546001810182556000919091527fdf6966c971051c3d54ec59162606531493a51404a002842f56009d7e5cf4a8c70180546001600160a01b031916331790555b5050505050505050565b610b6b60405180610140016040528060006001600160a01b0316815260200160608152602001606081526020016060815260200160608152602001606081526020016060815260200160608152602001606081526020016000151581525090565b6001600160a01b03808316600090815260076020908152604091829020825161014081019093528054909316825260018301805492939291840191610baf9061482d565b80601f0160208091040260200160405190810160405280929190818152602001828054610bdb9061482d565b8015610c285780601f10610bfd57610100808354040283529160200191610c28565b820191906000526020600020905b815481529060010190602001808311610c0b57829003601f168201915b50505050508152602001600282018054610c419061482d565b80601f0160208091040260200160405190810160405280929190818152602001828054610c6d9061482d565b8015610cba5780601f10610c8f57610100808354040283529160200191610cba565b820191906000526020600020905b815481529060010190602001808311610c9d57829003601f168201915b50505050508152602001600382018054610cd39061482d565b80601f0160208091040260200160405190810160405280929190818152602001828054610cff9061482d565b8015610d4c5780601f10610d2157610100808354040283529160200191610d4c565b820191906000526020600020905b815481529060010190602001808311610d2f57829003601f168201915b50505050508152602001600482018054610d659061482d565b80601f0160208091040260200160405190810160405280929190818152602001828054610d919061482d565b8015610dde5780601f10610db357610100808354040283529160200191610dde565b820191906000526020600020905b815481529060010190602001808311610dc157829003601f168201915b50505050508152602001600582018054610df79061482d565b80601f0160208091040260200160405190810160405280929190818152602001828054610e239061482d565b8015610e705780601f10610e4557610100808354040283529160200191610e70565b820191906000526020600020905b815481529060010190602001808311610e5357829003601f168201915b50505050508152602001600682018054610e899061482d565b80601f0160208091040260200160405190810160405280929190818152602001828054610eb59061482d565b8015610f025780601f10610ed757610100808354040283529160200191610f02565b820191906000526020600020905b815481529060010190602001808311610ee557829003601f168201915b50505050508152602001600782018054610f1b9061482d565b80601f0160208091040260200160405190810160405280929190818152602001828054610f479061482d565b8015610f945780601f10610f6957610100808354040283529160200191610f94565b820191906000526020600020905b815481529060010190602001808311610f7757829003601f168201915b50505050508152602001600882018054610fad9061482d565b80601f0160208091040260200160405190810160405280929190818152602001828054610fd99061482d565b80156110265780601f10610ffb57610100808354040283529160200191611026565b820191906000526020600020905b81548152906001019060200180831161100957829003601f168201915b50505091835250506009919091015460ff16151560209091015292915050565b600154604051636747f39160e01b8152600481018390526000916001600160a01b031690636747f39190602401602060405180830381865afa158015611090573d6000803e3d6000fd5b505050506040513d601f19601f820116820180604052508101906110b49190614996565b92915050565b600a60205281600052604060002081815481106110d657600080fd5b90600052602060002090600c0201600091509150508060000154908060010154908060020180546111069061482d565b80601f01602080910402602001604051908101604052809291908181526020018280546111329061482d565b801561117f5780601f106111545761010080835404028352916020019161117f565b820191906000526020600020905b81548152906001019060200180831161116257829003601f168201915b5050505050908060030180546111949061482d565b80601f01602080910402602001604051908101604052809291908181526020018280546111c09061482d565b801561120d5780601f106111e25761010080835404028352916020019161120d565b820191906000526020600020905b8154815290600101906020018083116111f057829003601f168201915b5050505050908060040180546112229061482d565b80601f016020809104026020016040519081016040528092919081815260200182805461124e9061482d565b801561129b5780601f106112705761010080835404028352916020019161129b565b820191906000526020600020905b81548152906001019060200180831161127e57829003601f168201915b5050505050908060050180546112b09061482d565b80601f01602080910402602001604051908101604052809291908181526020018280546112dc9061482d565b80156113295780601f106112fe57610100808354040283529160200191611329565b820191906000526020600020905b81548152906001019060200180831161130c57829003601f168201915b50505050509080600601805461133e9061482d565b80601f016020809104026020016040519081016040528092919081815260200182805461136a9061482d565b80156113b75780601f1061138c576101008083540402835291602001916113b7565b820191906000526020600020905b81548152906001019060200180831161139a57829003601f168201915b5050506007840154600a850154600b909501549394909390925060ff80821692506001600160a01b0361010083041691600160a81b9004168c565b6000546001600160a01b0316331461141c5760405162461bcd60e51b8152600401610706906149af565b6000818152600b602052604081208054600a929190829061143f5761143f6149f2565b60009182526020808320600160039093020191909101546001600160a01b031683528281019390935260409182018120848252600b909352908120805490919061148b5761148b6149f2565b906000526020600020906003020160020154815481106114ad576114ad6149f2565b600091825260208220600c9091020181815560018101829055906114d46002830182613ab6565b6114e2600383016000613ab6565b6114f0600483016000613ab6565b6114fe600583016000613ab6565b61150c600683016000613ab6565b60078201600090556008820160006115249190613af3565b611532600983016000613b11565b506000600a820155600b0180546001600160b01b0319169055805b6006548110156115a357600b6000611566836001614a08565b815260208082019290925260409081016000908120848252600b9093522081546115909290613b32565b508061159b8161497d565b91505061154d565b506006546000908152600b60205260409020541561160c576006546000908152600b602052604090208054806115db576115db614a1b565b6000828152602081206003600019909301928302018181556001810180546001600160a01b03191690556002015590555b6006805490600061161c83614a31565b919050555050565b3360008181526009602052604090205460ff1615156001146116585760405162461bcd60e51b815260040161070690614804565b600154604051631ea52c7360e01b8152600481018490523360248201526001600160a01b0390911690631ea52c739034906044016000604051808303818588803b1580156116a557600080fd5b505af11580156116b9573d6000803e3d6000fd5b50505050505050565b6001600160a01b038116600090815260096020526040902054606090829060ff1615156001146117045760405162461bcd60e51b815260040161070690614804565b600c5460009061171690600190614a48565b67ffffffffffffffff81111561172e5761172e613dcb565b60405190808252806020026020018201604052801561176757816020015b611754613bb8565b81526020019060019003908161174c5790505b5090506000805b600c54811015611d6757856001600160a01b0316600c8281548110611795576117956149f2565b6000918252602090912001546001600160a01b031614611d55576000600a6000600c84815481106117c8576117c86149f2565b60009182526020808320909101546001600160a01b031683528281019390935260409182018120805483518186028101860190945280845292939092919084015b82821015611cc457838290600052602060002090600c0201604051806101c001604052908160008201548152602001600182015481526020016002820180546118519061482d565b80601f016020809104026020016040519081016040528092919081815260200182805461187d9061482d565b80156118ca5780601f1061189f576101008083540402835291602001916118ca565b820191906000526020600020905b8154815290600101906020018083116118ad57829003601f168201915b505050505081526020016003820180546118e39061482d565b80601f016020809104026020016040519081016040528092919081815260200182805461190f9061482d565b801561195c5780601f106119315761010080835404028352916020019161195c565b820191906000526020600020905b81548152906001019060200180831161193f57829003601f168201915b505050505081526020016004820180546119759061482d565b80601f01602080910402602001604051908101604052809291908181526020018280546119a19061482d565b80156119ee5780601f106119c3576101008083540402835291602001916119ee565b820191906000526020600020905b8154815290600101906020018083116119d157829003601f168201915b50505050508152602001600582018054611a079061482d565b80601f0160208091040260200160405190810160405280929190818152602001828054611a339061482d565b8015611a805780601f10611a5557610100808354040283529160200191611a80565b820191906000526020600020905b815481529060010190602001808311611a6357829003601f168201915b50505050508152602001600682018054611a999061482d565b80601f0160208091040260200160405190810160405280929190818152602001828054611ac59061482d565b8015611b125780601f10611ae757610100808354040283529160200191611b12565b820191906000526020600020905b815481529060010190602001808311611af557829003601f168201915b505050505081526020016007820154815260200160088201805480602002602001604051908101604052809291908181526020016000905b82821015611bf6578382906000526020600020018054611b699061482d565b80601f0160208091040260200160405190810160405280929190818152602001828054611b959061482d565b8015611be25780601f10611bb757610100808354040283529160200191611be2565b820191906000526020600020905b815481529060010190602001808311611bc557829003601f168201915b505050505081526020019060010190611b4a565b50505050815260200160098201805480602002602001604051908101604052809291908181526020016000905b82821015611c6957838290600052602060002090600202016040518060400160405290816000820154815260200160018201548152505081526020019060010190611c23565b50505090825250600a820154602080830191909152600b9092015460ff808216151560408401526001600160a01b036101008304166060840152600160a81b9091041615156080909101529082526001929092019101611809565b50505050905060005b8151811015611d5257818181518110611ce857611ce86149f2565b6020026020010151610160015115611d4057818181518110611d0c57611d0c6149f2565b6020026020010151858581518110611d2657611d266149f2565b60200260200101819052508380611d3c9061497d565b9450505b80611d4a8161497d565b915050611ccd565b50505b80611d5f8161497d565b91505061176e565b5090949350505050565b3360008181526009602052604090205460ff161515600114611da55760405162461bcd60e51b815260040161070690614804565b60005b600c54811015611ebb576000600a6000600c8481548110611dcb57611dcb6149f2565b60009182526020808320909101546001600160a01b03168352820192909252604001812091505b8154811015611ea657611e28828281548110611e1057611e106149f2565b90600052602060002090600c020160090187876139de565b15611e945760405162461bcd60e51b815260206004820152603660248201527f416e6f74686572206c616e642077697468207468652073616d6520636f6f726460448201527534b730ba32b99030b63932b0b23c9032bc34b9ba399760511b6064820152608401610706565b80611e9e8161497d565b915050611df2565b50508080611eb39061497d565b915050611da8565b50336000908152600a60209081526040822080546001818101835591845291909220600354600c909202019081559081018c905560028101611efd8c826148a7565b5060038101611f0c8b826148a7565b5060048101611f1b8a826148a7565b5060058101611f2a89826148a7565b5060068101611f3988826148a7565b506007810186905542600a820155600b810180546001600160b01b031916610100330260ff60a81b191617905560005b8551811015611fc45781600801868281518110611f8857611f886149f2565b60209081029190910181015182546001810184556000938452919092200190611fb190826148a7565b5080611fbc8161497d565b915050611f69565b5060005b838110156120365781600901858583818110611fe657611fe66149f2565b835460018101855560009485526020909420604090910292909201926002029091019050612021828281358155602082013560018201555050565b5050808061202e9061497d565b915050611fc8565b50600380549060006120478361497d565b9091555050600680546000818152600b602090815260408083208151606081018352948552338584019081526003805493870193845282546001808201855593875294862096519402909501928355935193820180546001600160a01b0319166001600160a01b03909516949094179093559151600290920191909155815491906120d18361497d565b9190505550505050505050505050505050565b6001600160a01b038116600090815260096020526040902054606090829060ff1615156001146121265760405162461bcd60e51b815260040161070690614804565b6001600160a01b0383166000908152600a6020908152604080832080548251818502810185019093528083529193909284015b8282101561261457838290600052602060002090600c0201604051806101c001604052908160008201548152602001600182015481526020016002820180546121a19061482d565b80601f01602080910402602001604051908101604052809291908181526020018280546121cd9061482d565b801561221a5780601f106121ef5761010080835404028352916020019161221a565b820191906000526020600020905b8154815290600101906020018083116121fd57829003601f168201915b505050505081526020016003820180546122339061482d565b80601f016020809104026020016040519081016040528092919081815260200182805461225f9061482d565b80156122ac5780601f10612281576101008083540402835291602001916122ac565b820191906000526020600020905b81548152906001019060200180831161228f57829003601f168201915b505050505081526020016004820180546122c59061482d565b80601f01602080910402602001604051908101604052809291908181526020018280546122f19061482d565b801561233e5780601f106123135761010080835404028352916020019161233e565b820191906000526020600020905b81548152906001019060200180831161232157829003601f168201915b505050505081526020016005820180546123579061482d565b80601f01602080910402602001604051908101604052809291908181526020018280546123839061482d565b80156123d05780601f106123a5576101008083540402835291602001916123d0565b820191906000526020600020905b8154815290600101906020018083116123b357829003601f168201915b505050505081526020016006820180546123e99061482d565b80601f01602080910402602001604051908101604052809291908181526020018280546124159061482d565b80156124625780601f1061243757610100808354040283529160200191612462565b820191906000526020600020905b81548152906001019060200180831161244557829003601f168201915b505050505081526020016007820154815260200160088201805480602002602001604051908101604052809291908181526020016000905b828210156125465783829060005260206000200180546124b99061482d565b80601f01602080910402602001604051908101604052809291908181526020018280546124e59061482d565b80156125325780601f1061250757610100808354040283529160200191612532565b820191906000526020600020905b81548152906001019060200180831161251557829003601f168201915b50505050508152602001906001019061249a565b50505050815260200160098201805480602002602001604051908101604052809291908181526020016000905b828210156125b957838290600052602060002090600202016040518060400160405290816000820154815260200160018201548152505081526020019060010190612573565b50505090825250600a820154602080830191909152600b9092015460ff808216151560408401526001600160a01b036101008304166060840152600160a81b9091041615156080909101529082526001929092019101612159565b50505050915050919050565b6001600160a01b038116600090815260096020526040902054819060ff16151560011461265f5760405162461bcd60e51b815260040161070690614804565b6001600160a01b0382166000908152600a602052604090208054600191908790811061268d5761268d6149f2565b60009182526020909120600c90910201600b01805460ff191691151591909117905560015460405163a90f28cd60e01b81526004810187905260248101869052604481018590526001600160a01b0384811660648301529091169063a90f28cd90608401600060405180830381600087803b15801561270b57600080fd5b505af115801561271f573d6000803e3d6000fd5b5050600480549250905060006127348361497d565b91905055505050505050565b6000546060906001600160a01b0316331461276d5760405162461bcd60e51b8152600401610706906149af565b600c5460009067ffffffffffffffff81111561278b5761278b613dcb565b6040519080825280602002602001820160405280156127c457816020015b6127b1613bb8565b8152602001906001900390816127a95790505b5090506000805b600654811015612e45576000818152600b6020908152604080832080548251818502810185019093528083529192909190849084015b828210156128565760008481526020908190206040805160608101825260038602909201805483526001808201546001600160a01b031684860152600290910154918301919091529083529092019101612801565b50505050905060005b8151811015612e30576000600a6000848481518110612880576128806149f2565b6020026020010151602001516001600160a01b03166001600160a01b03168152602001908152602001600020805480602002602001604051908101604052809291908181526020016000905b82821015612d8757838290600052602060002090600c0201604051806101c001604052908160008201548152602001600182015481526020016002820180546129149061482d565b80601f01602080910402602001604051908101604052809291908181526020018280546129409061482d565b801561298d5780601f106129625761010080835404028352916020019161298d565b820191906000526020600020905b81548152906001019060200180831161297057829003601f168201915b505050505081526020016003820180546129a69061482d565b80601f01602080910402602001604051908101604052809291908181526020018280546129d29061482d565b8015612a1f5780601f106129f457610100808354040283529160200191612a1f565b820191906000526020600020905b815481529060010190602001808311612a0257829003601f168201915b50505050508152602001600482018054612a389061482d565b80601f0160208091040260200160405190810160405280929190818152602001828054612a649061482d565b8015612ab15780601f10612a8657610100808354040283529160200191612ab1565b820191906000526020600020905b815481529060010190602001808311612a9457829003601f168201915b50505050508152602001600582018054612aca9061482d565b80601f0160208091040260200160405190810160405280929190818152602001828054612af69061482d565b8015612b435780601f10612b1857610100808354040283529160200191612b43565b820191906000526020600020905b815481529060010190602001808311612b2657829003601f168201915b50505050508152602001600682018054612b5c9061482d565b80601f0160208091040260200160405190810160405280929190818152602001828054612b889061482d565b8015612bd55780601f10612baa57610100808354040283529160200191612bd5565b820191906000526020600020905b815481529060010190602001808311612bb857829003601f168201915b505050505081526020016007820154815260200160088201805480602002602001604051908101604052809291908181526020016000905b82821015612cb9578382906000526020600020018054612c2c9061482d565b80601f0160208091040260200160405190810160405280929190818152602001828054612c589061482d565b8015612ca55780601f10612c7a57610100808354040283529160200191612ca5565b820191906000526020600020905b815481529060010190602001808311612c8857829003601f168201915b505050505081526020019060010190612c0d565b50505050815260200160098201805480602002602001604051908101604052809291908181526020016000905b82821015612d2c57838290600052602060002090600202016040518060400160405290816000820154815260200160018201548152505081526020019060010190612ce6565b50505090825250600a820154602080830191909152600b9092015460ff808216151560408401526001600160a01b036101008304166060840152600160a81b90910416151560809091015290825260019290920191016128cc565b50505050905060005b8151811015612e1b57818181518110612dab57612dab6149f2565b60200260200101516101a0015115156000151503612e0957818181518110612dd557612dd56149f2565b6020026020010151878781518110612def57612def6149f2565b60200260200101819052508580612e059061497d565b9650505b80612e138161497d565b915050612d90565b50508080612e289061497d565b91505061285f565b50508080612e3d9061497d565b9150506127cb565b509091505090565b6000546001600160a01b03163314612e775760405162461bcd60e51b8152600401610706906149af565b6001600160a01b0382166000908152600a6020526040902080546001919083908110612ea557612ea56149f2565b60009182526020909120600b600c90920201018054911515600160a81b0260ff60a81b19909216919091179055805b600654811015612f2a57600b6000612eed836001614a08565b815260208082019290925260409081016000908120848252600b909352208154612f179290613b32565b5080612f228161497d565b915050612ed4565b506006546000908152600b602052604090205415612f93576006546000908152600b60205260409020805480612f6257612f62614a1b565b6000828152602081206003600019909301928302018181556001810180546001600160a01b03191690556002015590555b60068054906000612fa383614a31565b909155505060058054906000612fb88361497d565b91905055505050565b6001600160a01b0381166000908152600a60205260408120805484908110612feb57612feb6149f2565b60009182526020909120600c90910201600b01805460ff1916911515919091179055600154604051638bebfca960e01b8152600481018490526001600160a01b0390911690638bebfca990602401600060405180830381600087803b15801561305357600080fd5b505af1158015613067573d6000803e3d6000fd5b50506040516001600160a01b03841681527fcdc6cbff4a2a2b44290195ce8a424ad1d7ab70fc6ef3764e2db517e78bf2cc699250602001905060405180910390a15050565b6001600160a01b038116600090815260096020526040902054819060ff1615156001146130eb5760405162461bcd60e51b815260040161070690614804565b506001600160a01b03166000908152600760205260409020600901805460ff19169055565b600760205260009081526040902080546001820180546001600160a01b03909216929161313c9061482d565b80601f01602080910402602001604051908101604052809291908181526020018280546131689061482d565b80156131b55780601f1061318a576101008083540402835291602001916131b5565b820191906000526020600020905b81548152906001019060200180831161319857829003601f168201915b5050505050908060020180546131ca9061482d565b80601f01602080910402602001604051908101604052809291908181526020018280546131f69061482d565b80156132435780601f1061321857610100808354040283529160200191613243565b820191906000526020600020905b81548152906001019060200180831161322657829003601f168201915b5050505050908060030180546132589061482d565b80601f01602080910402602001604051908101604052809291908181526020018280546132849061482d565b80156132d15780601f106132a6576101008083540402835291602001916132d1565b820191906000526020600020905b8154815290600101906020018083116132b457829003601f168201915b5050505050908060040180546132e69061482d565b80601f01602080910402602001604051908101604052809291908181526020018280546133129061482d565b801561335f5780601f106133345761010080835404028352916020019161335f565b820191906000526020600020905b81548152906001019060200180831161334257829003601f168201915b5050505050908060050180546133749061482d565b80601f01602080910402602001604051908101604052809291908181526020018280546133a09061482d565b80156133ed5780601f106133c2576101008083540402835291602001916133ed565b820191906000526020600020905b8154815290600101906020018083116133d057829003601f168201915b5050505050908060060180546134029061482d565b80601f016020809104026020016040519081016040528092919081815260200182805461342e9061482d565b801561347b5780601f106134505761010080835404028352916020019161347b565b820191906000526020600020905b81548152906001019060200180831161345e57829003601f168201915b5050505050908060070180546134909061482d565b80601f01602080910402602001604051908101604052809291908181526020018280546134bc9061482d565b80156135095780601f106134de57610100808354040283529160200191613509565b820191906000526020600020905b8154815290600101906020018083116134ec57829003601f168201915b50505050509080600801805461351e9061482d565b80601f016020809104026020016040519081016040528092919081815260200182805461354a9061482d565b80156135975780601f1061356c57610100808354040283529160200191613597565b820191906000526020600020905b81548152906001019060200180831161357a57829003601f168201915b5050506009909301549192505060ff168a565b60015460405163ce73358960e01b81526004810183905233602482015260009182916001600160a01b039091169063ce733589906044016040805180830381865afa1580156135fd573d6000803e3d6000fd5b505050506040513d601f19601f820116820180604052508101906136219190614a5b565b91509150915091565b6000805b600c5481101561368a57826001600160a01b0316600c8281548110613655576136556149f2565b6000918252602090912001546001600160a01b0316036136785750600192915050565b806136828161497d565b91505061362e565b50600092915050565b6000546001600160a01b031633146136bd5760405162461bcd60e51b8152600401610706906149af565b6001600160a01b0382166000908152600a602052604081208054869081106136e7576136e76149f2565b60009182526020808320600c92830201600b810180546001600160a81b0319166101006001600160a01b038b1690810260ff1916919091179091558452600a8252604084208054600181810183559186529290942081549290930290920190815582820154928101929092559150819060028082019061376990840182614a8e565b5060038181019061377c90840182614a8e565b5060048181019061378f90840182614a8e565b506005818101906137a290840182614a8e565b506006818101906137b590840182614a8e565b506007820154816007015560088201816008019080546137d6929190613c34565b50600982810180546137eb9284019190613c88565b50600a8281015482820155600b928301805493909201805460ff19811660ff9586161515908117835584546001600160a81b0319909216610100600160a81b031990911617610100918290046001600160a01b0390811690920217808355935460ff60a81b19909416600160a81b94859004909516151590930293909317909255841660009081526020919091526040902080548690811061388f5761388f6149f2565b600091825260208220600c9091020181815560018101829055906138b66002830182613ab6565b6138c4600383016000613ab6565b6138d2600483016000613ab6565b6138e0600583016000613ab6565b6138ee600683016000613ab6565b60078201600090556008820160006139069190613af3565b613914600983016000613b11565b506000600a820155600b0180546001600160b01b0319169055600154604051638bebfca960e01b8152600481018790526001600160a01b0390911690638bebfca990602401600060405180830381600087803b15801561397357600080fd5b505af1158015613987573d6000803e3d6000fd5b5050604080516001600160a01b038088168252881660208201529081018590527fefb12380721f12d0f43ac6c75ee1e5ce3ffdca922215836648051e2ea207f1a79250606001905060405180910390a15050505050565b825460009082146139f157506000613aaf565b60005b8454811015613aa957838382818110613a0f57613a0f6149f2565b90506040020160000135858281548110613a2b57613a2b6149f2565b906000526020600020906002020160000154141580613a885750838382818110613a5757613a576149f2565b90506040020160200135858281548110613a7357613a736149f2565b90600052602060002090600202016001015414155b15613a97576000915050613aaf565b80613aa18161497d565b9150506139f4565b50600190505b9392505050565b508054613ac29061482d565b6000825580601f10613ad2575050565b601f016020900490600052602060002090810190613af09190613ce4565b50565b5080546000825590600052602060002090810190613af09190613cf9565b5080546000825560020290600052602060002090810190613af09190613d16565b828054828255906000526020600020906003028101928215613ba85760005260206000209160030282015b82811115613ba8578254825560018084015490830180546001600160a01b0319166001600160a01b039092169190911790556002808401549083015560039283019290910190613b5d565b50613bb4929150613d31565b5090565b604051806101c00160405280600081526020016000815260200160608152602001606081526020016060815260200160608152602001606081526020016000815260200160608152602001606081526020016000815260200160001515815260200160006001600160a01b031681526020016000151581525090565b828054828255906000526020600020908101928215613c7c5760005260206000209182015b82811115613c7c5781613c6c8482614a8e565b5091600101919060010190613c59565b50613bb4929150613cf9565b828054828255906000526020600020906002028101928215613cd85760005260206000209160020282015b82811115613cd857825482556001808401549083015560029283019290910190613cb3565b50613bb4929150613d16565b5b80821115613bb45760008155600101613ce5565b80821115613bb4576000613d0d8282613ab6565b50600101613cf9565b5b80821115613bb45760008082556001820155600201613d17565b5b80821115613bb45760008082556001820180546001600160a01b03191690556002820155600301613d32565b60008060408385031215613d7157600080fd5b50508035926020909101359150565b6001600160a01b0381168114613af057600080fd5b600060208284031215613da757600080fd5b8135613aaf81613d80565b600060208284031215613dc457600080fd5b5035919050565b634e487b7160e01b600052604160045260246000fd5b604051601f8201601f1916810167ffffffffffffffff81118282101715613e0a57613e0a613dcb565b604052919050565b600082601f830112613e2357600080fd5b813567ffffffffffffffff811115613e3d57613e3d613dcb565b613e50601f8201601f1916602001613de1565b818152846020838601011115613e6557600080fd5b816020850160208301376000918101602001919091529392505050565b600060208284031215613e9457600080fd5b813567ffffffffffffffff811115613eab57600080fd5b613eb784828501613e12565b949350505050565b600080600080600080600080610100898b031215613edc57600080fd5b883567ffffffffffffffff80821115613ef457600080fd5b613f008c838d01613e12565b995060208b0135915080821115613f1657600080fd5b613f228c838d01613e12565b985060408b0135915080821115613f3857600080fd5b613f448c838d01613e12565b975060608b0135915080821115613f5a57600080fd5b613f668c838d01613e12565b965060808b0135915080821115613f7c57600080fd5b613f888c838d01613e12565b955060a08b0135915080821115613f9e57600080fd5b613faa8c838d01613e12565b945060c08b0135915080821115613fc057600080fd5b613fcc8c838d01613e12565b935060e08b0135915080821115613fe257600080fd5b50613fef8b828c01613e12565b9150509295985092959890939650565b6000815180845260005b8181101561402557602081850181015186830182015201614009565b506000602082860101526020601f19601f83011685010191505092915050565b6020815261405f6020820183516001600160a01b03169052565b6000602083015161014080604085015261407d610160850183613fff565b91506040850151601f198086850301606087015261409b8483613fff565b935060608701519150808685030160808701526140b88483613fff565b935060808701519150808685030160a08701526140d58483613fff565b935060a08701519150808685030160c08701526140f28483613fff565b935060c08701519150808685030160e087015261410f8483613fff565b935060e0870151915061010081878603018188015261412e8584613fff565b94508088015192505061012081878603018188015261414d8584613fff565b94508088015192505050611d678286018215159052565b6000806040838503121561417757600080fd5b823561418281613d80565b946020939093013593505050565b60006101808e83528d60208401528060408401526141b08184018e613fff565b905082810360608401526141c4818d613fff565b905082810360808401526141d8818c613fff565b905082810360a08401526141ec818b613fff565b905082810360c0840152614200818a613fff565b9150508660e08301528561010083015284151561012083015261422f6101408301856001600160a01b03169052565b8215156101608301529d9c50505050505050505050505050565b6000815180845260208085019450848260051b860182860160005b8581101561428e57838303895261427c838351613fff565b98850198925090840190600101614264565b5090979650505050505050565b600081518084526020808501945080840160005b838110156142d65781518051885283015183880152604090960195908201906001016142af565b509495945050505050565b60006020808301818452808551808352604092508286019150828160051b87010184880160005b8381101561444557603f1989840301855281516101c081518552888201518986015287820151818987015261433f82870182613fff565b915050606080830151868303828801526143598382613fff565b92505050608080830151868303828801526143748382613fff565b9250505060a0808301518683038288015261438f8382613fff565b9250505060c080830151868303828801526143aa8382613fff565b9250505060e080830151818701525061010080830151868303828801526143d18382614249565b9250505061012080830151868303828801526143ed838261429b565b92505050610140808301518187015250610160808301516144118288018215159052565b5050610180828101516001600160a01b0316908601526101a091820151151591909401529386019390860190600101614308565b509098975050505050505050565b600082601f83011261446457600080fd5b8135602067ffffffffffffffff8083111561448157614481613dcb565b8260051b614490838201613de1565b93845285810183019383810190888611156144aa57600080fd5b84880192505b858310156144e6578235848111156144c85760008081fd5b6144d68a87838c0101613e12565b83525091840191908401906144b0565b98975050505050505050565b60008083601f84011261450457600080fd5b50813567ffffffffffffffff81111561451c57600080fd5b6020830191508360208260061b850101111561453757600080fd5b9250929050565b6000806000806000806000806000806101208b8d03121561455e57600080fd5b8a35995060208b013567ffffffffffffffff8082111561457d57600080fd5b6145898e838f01613e12565b9a5060408d013591508082111561459f57600080fd5b6145ab8e838f01613e12565b995060608d01359150808211156145c157600080fd5b6145cd8e838f01613e12565b985060808d01359150808211156145e357600080fd5b6145ef8e838f01613e12565b975060a08d013591508082111561460557600080fd5b6146118e838f01613e12565b965060c08d0135955060e08d013591508082111561462e57600080fd5b61463a8e838f01614453565b94506101008d013591508082111561465157600080fd5b5061465e8d828e016144f2565b915080935050809150509295989b9194979a5092959850565b6000806000806080858703121561468d57600080fd5b84359350602085013592506040850135915060608501356146ad81613d80565b939692955090935050565b600080604083850312156146cb57600080fd5b8235915060208301356146dd81613d80565b809150509250929050565b6001600160a01b038b1681526101406020820181905260009061470d8382018d613fff565b90508281036040840152614721818c613fff565b90508281036060840152614735818b613fff565b90508281036080840152614749818a613fff565b905082810360a084015261475d8189613fff565b905082810360c08401526147718188613fff565b905082810360e08401526147858187613fff565b905082810361010084015261479a8186613fff565b9150506147ac61012083018415159052565b9b9a5050505050505050505050565b600080600080608085870312156147d157600080fd5b8451935060208501516147e381613d80565b60408601519093506147f481613d80565b6060959095015193969295505050565b6020808252600f908201526e139bdd081c995cd9da5cdd195c9959608a1b604082015260600190565b600181811c9082168061484157607f821691505b60208210810361078b57634e487b7160e01b600052602260045260246000fd5b601f82111561086957600081815260208120601f850160051c810160208610156148885750805b601f850160051c820191505b818110156106bf57828155600101614894565b815167ffffffffffffffff8111156148c1576148c1613dcb565b6148d5816148cf845461482d565b84614861565b602080601f83116001811461490a57600084156148f25750858301515b600019600386901b1c1916600185901b1785556106bf565b600085815260208120601f198616915b828110156149395788860151825594840194600190910190840161491a565b50858210156149575787850151600019600388901b60f8161c191681555b5050505050600190811b01905550565b634e487b7160e01b600052601160045260246000fd5b60006001820161498f5761498f614967565b5060010190565b6000602082840312156149a857600080fd5b5051919050565b60208082526023908201527f4f6e6c7920636f6e7472616374206f776e65722063616e20616363657373207460408201526268697360e81b606082015260800190565b634e487b7160e01b600052603260045260246000fd5b808201808211156110b4576110b4614967565b634e487b7160e01b600052603160045260246000fd5b600081614a4057614a40614967565b506000190190565b818103818111156110b4576110b4614967565b60008060408385031215614a6e57600080fd5b82518015158114614a7e57600080fd5b6020939093015192949293505050565b818103614a99575050565b614aa3825461482d565b67ffffffffffffffff811115614abb57614abb613dcb565b614ac9816148cf845461482d565b6000601f821160018114614afd5760008315614ae55750848201545b600019600385901b1c1916600184901b178455614b62565b600085815260209020601f19841690600086815260209020845b83811015614b375782860154825560019586019590910190602001614b17565b5085831015614b555781850154600019600388901b60f8161c191681555b50505060018360011b0184555b505050505056fea26469706673582212208020d67a4b4ae90a886951ff6b5f5048a94806f58203dd59139f03be3546a20c64736f6c63430008140033608060405234801561001057600080fd5b50604051610d60380380610d6083398101604081905261002f916100d4565b338061005557604051631e4fbdf760e01b81526000600482015260240160405180910390fd5b61005e81610084565b50600180546001600160a01b0319166001600160a01b0392909216919091179055610104565b600080546001600160a01b038381166001600160a01b0319831681178455604051919092169283917f8be0079c531659141344cd1fd0a4f28419497f9722a3daafe3b4186f6b6457e09190a35050565b6000602082840312156100e657600080fd5b81516001600160a01b03811681146100fd57600080fd5b9392505050565b610c4d806101136000396000f3fe60806040526004361061009c5760003560e01c8063715018a611610064578063715018a6146101cf5780638bebfca9146101e45780638da5cb5b14610204578063a90f28cd1461022c578063ce7335891461024c578063f2fde38b1461028357600080fd5b80631ea52c73146100a157806320025340146100b657806329d26296146101315780634df3d313146101815780636747f391146101af575b600080fd5b6100b46100af366004610ada565b6102a3565b005b3480156100c257600080fd5b506101036100d1366004610b06565b60026020819052600091825260409091208054600182015492820154600390920154909291906001600160a01b031684565b604080519485526020850193909352918301526001600160a01b031660608201526080015b60405180910390f35b34801561013d57600080fd5b5061015161014c366004610b1f565b6104ab565b60405161012894939291909384526001600160a01b03928316602085015291166040830152606082015260800190565b34801561018d57600080fd5b506101a161019c366004610b06565b61072f565b604051908152602001610128565b3480156101bb57600080fd5b506101a16101ca366004610b06565b610820565b3480156101db57600080fd5b506100b4610844565b3480156101f057600080fd5b506100b46101ff366004610b06565b610858565b34801561021057600080fd5b506000546040516001600160a01b039091168152602001610128565b34801561023857600080fd5b506100b4610247366004610b41565b61089d565b34801561025857600080fd5b5061026c610267366004610ada565b61096f565b604080519215158352602083019190915201610128565b34801561028f57600080fd5b506100b461029e366004610b80565b6109d6565b600082815260026020819052604090912090810154421061030b5760405162461bcd60e51b815260206004820152601c60248201527f42696464696e6720636c6f73656420666f722074686973206c616e640000000060448201526064015b60405180910390fd5b80600101543410156103855760405162461bcd60e51b815260206004820152603c60248201527f42696420616d6f756e74206d7573742062652067726561746572207468616e2060448201527f6f7220657175616c20746f20746865207374617274696e6720626964000000006064820152608401610302565b6001600160a01b03828116600090815260048301602052604090205416156103e45760405162461bcd60e51b8152602060048201526012602482015271109a5908185b1c9958591e481c1b1858d95960721b6044820152606401610302565b600581018054600180820183556000928352602080842090920180546001600160a01b03199081166001600160a01b0388811691821790935560408051606080820183528382523482890181815242848601908152958b5260048c018a529984902092518354909616959096169490941781559651948701949094555160029095019490945581518781523393810193909352908201527f0e54eff26401bf69b81b26f60bd85ef47f5d85275c1d268d84f68d6897431c47910160405180910390a1505050565b60008281526002602081905260408220908101548291829182919086116105145760405162461bcd60e51b815260206004820152601860248201527f42696464696e67206973207374696c6c206f6e676f696e6700000000000000006044820152606401610302565b60058101546001111561053f5760030154869450600093506001600160a01b03169150829050610726565b60008060005b60058401548110156105d457600084600501828154811061056857610568610ba2565b60009182526020808320909101546001600160a01b0316808352600488019091526040909120600101549091508310156105c1576001600160a01b03811660009081526004860160205260409020600101549093509150825b50806105cc81610bce565b915050610545565b5060038301546040516001600160a01b039091169082156108fc029083906000818181858888f19350505050158015610611573d6000803e3d6000fd5b5060005b600584015481101561070b57826001600160a01b031684600501828154811061064057610640610ba2565b6000918252602090912001546001600160a01b0316146106f95783600501818154811061066f5761066f610ba2565b60009182526020822001546005860180546001600160a01b03909216926108fc92600489019290869081106106a6576106a6610ba2565b60009182526020808320909101546001600160a01b03168352820192909252604090810182206001015490518115909302929091818181858888f193505050501580156106f7573d6000803e3d6000fd5b505b8061070381610bce565b915050610615565b506003909201548896509094506001600160a01b0316925090505b92959194509250565b600081815260026020908152604080832060058101805483518186028101860190945280845291938593849390929183018282801561079757602002820191906000526020600020905b81546001600160a01b03168152600190910190602001808311610779575b5050505050905060005b81518110156108165760008460040160008484815181106107c4576107c4610ba2565b60200260200101516001600160a01b03166001600160a01b03168152602001908152602001600020600101541115610804578261080081610bce565b9350505b8061080e81610bce565b9150506107a1565b5090949350505050565b600061082a610a14565b50600081815260026020819052604090912001545b919050565b61084c610a14565b6108566000610a41565b565b60008181526002602081905260408220828155600181018390559081018290556003810180546001600160a01b0319169055906108986005830182610a91565b505050565b6108a5610a14565b60008481526002602081905260409091200154156109115760405162461bcd60e51b8152602060048201526024808201527f42696464696e6720616c72656164792065786973747320666f722074686973206044820152631b185b9960e21b6064820152608401610302565b61091c83603c610be7565b6109269042610c04565b6000858152600260208190526040909120958655600186019390935591840191909155600390920180546001600160a01b0319166001600160a01b039093169290921790915550565b60008281526002602090815260408083206001600160a01b03851684526004019091528120600101548190156109c8575050600082815260026020908152604080832033845260040190915290206001908101546109cf565b5060009050805b9250929050565b6109de610a14565b6001600160a01b038116610a0857604051631e4fbdf760e01b815260006004820152602401610302565b610a1181610a41565b50565b6000546001600160a01b031633146108565760405163118cdaa760e01b8152336004820152602401610302565b600080546001600160a01b038381166001600160a01b0319831681178455604051919092169283917f8be0079c531659141344cd1fd0a4f28419497f9722a3daafe3b4186f6b6457e09190a35050565b5080546000825590600052602060002090810190610a1191905b80821115610abf5760008155600101610aab565b5090565b80356001600160a01b038116811461083f57600080fd5b60008060408385031215610aed57600080fd5b82359150610afd60208401610ac3565b90509250929050565b600060208284031215610b1857600080fd5b5035919050565b60008060408385031215610b3257600080fd5b50508035926020909101359150565b60008060008060808587031215610b5757600080fd5b843593506020850135925060408501359150610b7560608601610ac3565b905092959194509250565b600060208284031215610b9257600080fd5b610b9b82610ac3565b9392505050565b634e487b7160e01b600052603260045260246000fd5b634e487b7160e01b600052601160045260246000fd5b600060018201610be057610be0610bb8565b5060010190565b8082028115828204841417610bfe57610bfe610bb8565b92915050565b80820180821115610bfe57610bfe610bb856fea2646970667358221220b3a6a45eda2dbf25effbdf33544ed486032da6f8ccbb680905d5557ea08357de64736f6c63430008140033",
  "linkReferences": {},
  "deployedLinkReferences": {}
}