{
  "_format": "hh-sol-artifact-1",
  "contractName": "Bidding",
  "sourceName": "contracts/Bidding.sol",
  "abi": [
    {
      "inputs": [
        {
          "internalType": "address",
          "name": "_landContractAddress",
          "type": "address"
        }
      ],
      "stateMutability": "nonpayable",
      "type": "constructor"
    },
    {
      "inputs": [
        {
          "internalType": "address",
          "name": "owner",
          "type": "address"
        }
      ],
      "name": "OwnableInvalidOwner",
      "type": "error"
    },
    {
      "inputs": [
        {
          "internalType": "address",
          "name": "account",
          "type": "address"
        }
      ],
      "name": "OwnableUnauthorizedAccount",
      "type": "error"
    },
    {
      "anonymous": false,
      "inputs": [
        {
          "indexed": false,
          "internalType": "uint256",
          "name": "landId",
          "type": "uint256"
        },
        {
          "indexed": false,
          "internalType": "address",
          "name": "bidder",
          "type": "address"
        },
        {
          "indexed": false,
          "internalType": "uint256",
          "name": "amount",
          "type": "uint256"
        }
      ],
      "name": "BidPlaced",
      "type": "event"
    },
    {
      "anonymous": false,
      "inputs": [
        {
          "indexed": true,
          "internalType": "address",
          "name": "previousOwner",
          "type": "address"
        },
        {
          "indexed": true,
          "internalType": "address",
          "name": "newOwner",
          "type": "address"
        }
      ],
      "name": "OwnershipTransferred",
      "type": "event"
    },
    {
      "inputs": [
        {
          "internalType": "uint256",
          "name": "landId",
          "type": "uint256"
        },
        {
          "internalType": "address",
          "name": "seller",
          "type": "address"
        }
      ],
      "name": "bidPlaced",
      "outputs": [
        {
          "internalType": "bool",
          "name": "",
          "type": "bool"
        },
        {
          "internalType": "uint256",
          "name": "",
          "type": "uint256"
        }
      ],
      "stateMutability": "view",
      "type": "function"
    },
    {
      "inputs": [
        {
          "internalType": "uint256",
          "name": "landId",
          "type": "uint256"
        },
        {
          "internalType": "uint256",
          "name": "closingTime",
          "type": "uint256"
        },
        {
          "internalType": "uint256",
          "name": "amount",
          "type": "uint256"
        },
        {
          "internalType": "address",
          "name": "owner",
          "type": "address"
        }
      ],
      "name": "createLandBid",
      "outputs": [],
      "stateMutability": "nonpayable",
      "type": "function"
    },
    {
      "inputs": [
        {
          "internalType": "uint256",
          "name": "landId",
          "type": "uint256"
        }
      ],
      "name": "deleteBid",
      "outputs": [],
      "stateMutability": "nonpayable",
      "type": "function"
    },
    {
      "inputs": [
        {
          "internalType": "uint256",
          "name": "landId",
          "type": "uint256"
        },
        {
          "internalType": "uint256",
          "name": "_timestamp",
          "type": "uint256"
        }
      ],
      "name": "finalizeBid",
      "outputs": [
        {
          "internalType": "uint256",
          "name": "",
          "type": "uint256"
        },
        {
          "internalType": "address",
          "name": "",
          "type": "address"
        },
        {
          "internalType": "address",
          "name": "",
          "type": "address"
        },
        {
          "internalType": "uint256",
          "name": "",
          "type": "uint256"
        }
      ],
      "stateMutability": "nonpayable",
      "type": "function"
    },
    {
      "inputs": [
        {
          "internalType": "uint256",
          "name": "landId",
          "type": "uint256"
        }
      ],
      "name": "getNumberOfBids",
      "outputs": [
        {
          "internalType": "uint256",
          "name": "",
          "type": "uint256"
        }
      ],
      "stateMutability": "view",
      "type": "function"
    },
    {
      "inputs": [
        {
          "internalType": "uint256",
          "name": "id",
          "type": "uint256"
        }
      ],
      "name": "getTimeStamp",
      "outputs": [
        {
          "internalType": "uint256",
          "name": "",
          "type": "uint256"
        }
      ],
      "stateMutability": "view",
      "type": "function"
    },
    {
      "inputs": [
        {
          "internalType": "uint256",
          "name": "",
          "type": "uint256"
        }
      ],
      "name": "landBids",
      "outputs": [
        {
          "internalType": "uint256",
          "name": "landId",
          "type": "uint256"
        },
        {
          "internalType": "uint256",
          "name": "amount",
          "type": "uint256"
        },
        {
          "internalType": "uint256",
          "name": "closingTime",
          "type": "uint256"
        },
        {
          "internalType": "address",
          "name": "owner",
          "type": "address"
        }
      ],
      "stateMutability": "view",
      "type": "function"
    },
    {
      "inputs": [],
      "name": "owner",
      "outputs": [
        {
          "internalType": "address",
          "name": "",
          "type": "address"
        }
      ],
      "stateMutability": "view",
      "type": "function"
    },
    {
      "inputs": [
        {
          "internalType": "uint256",
          "name": "landId",
          "type": "uint256"
        },
        {
          "internalType": "address",
          "name": "seller",
          "type": "address"
        }
      ],
      "name": "placeBid",
      "outputs": [],
      "stateMutability": "payable",
      "type": "function"
    },
    {
      "inputs": [],
      "name": "renounceOwnership",
      "outputs": [],
      "stateMutability": "nonpayable",
      "type": "function"
    },
    {
      "inputs": [
        {
          "internalType": "address",
          "name": "newOwner",
          "type": "address"
        }
      ],
      "name": "transferOwnership",
      "outputs": [],
      "stateMutability": "nonpayable",
      "type": "function"
    }
  ],
  "bytecode": "0x608060405234801561001057600080fd5b50604051610d60380380610d6083398101604081905261002f916100d4565b338061005557604051631e4fbdf760e01b81526000600482015260240160405180910390fd5b61005e81610084565b50600180546001600160a01b0319166001600160a01b0392909216919091179055610104565b600080546001600160a01b038381166001600160a01b0319831681178455604051919092169283917f8be0079c531659141344cd1fd0a4f28419497f9722a3daafe3b4186f6b6457e09190a35050565b6000602082840312156100e657600080fd5b81516001600160a01b03811681146100fd57600080fd5b9392505050565b610c4d806101136000396000f3fe60806040526004361061009c5760003560e01c8063715018a611610064578063715018a6146101cf5780638bebfca9146101e45780638da5cb5b14610204578063a90f28cd1461022c578063ce7335891461024c578063f2fde38b1461028357600080fd5b80631ea52c73146100a157806320025340146100b657806329d26296146101315780634df3d313146101815780636747f391146101af575b600080fd5b6100b46100af366004610ada565b6102a3565b005b3480156100c257600080fd5b506101036100d1366004610b06565b60026020819052600091825260409091208054600182015492820154600390920154909291906001600160a01b031684565b604080519485526020850193909352918301526001600160a01b031660608201526080015b60405180910390f35b34801561013d57600080fd5b5061015161014c366004610b1f565b6104ab565b60405161012894939291909384526001600160a01b03928316602085015291166040830152606082015260800190565b34801561018d57600080fd5b506101a161019c366004610b06565b61072f565b604051908152602001610128565b3480156101bb57600080fd5b506101a16101ca366004610b06565b610820565b3480156101db57600080fd5b506100b4610844565b3480156101f057600080fd5b506100b46101ff366004610b06565b610858565b34801561021057600080fd5b506000546040516001600160a01b039091168152602001610128565b34801561023857600080fd5b506100b4610247366004610b41565b61089d565b34801561025857600080fd5b5061026c610267366004610ada565b61096f565b604080519215158352602083019190915201610128565b34801561028f57600080fd5b506100b461029e366004610b80565b6109d6565b600082815260026020819052604090912090810154421061030b5760405162461bcd60e51b815260206004820152601c60248201527f42696464696e6720636c6f73656420666f722074686973206c616e640000000060448201526064015b60405180910390fd5b80600101543410156103855760405162461bcd60e51b815260206004820152603c60248201527f42696420616d6f756e74206d7573742062652067726561746572207468616e2060448201527f6f7220657175616c20746f20746865207374617274696e6720626964000000006064820152608401610302565b6001600160a01b03828116600090815260048301602052604090205416156103e45760405162461bcd60e51b8152602060048201526012602482015271109a5908185b1c9958591e481c1b1858d95960721b6044820152606401610302565b600581018054600180820183556000928352602080842090920180546001600160a01b03199081166001600160a01b0388811691821790935560408051606080820183528382523482890181815242848601908152958b5260048c018a529984902092518354909616959096169490941781559651948701949094555160029095019490945581518781523393810193909352908201527f0e54eff26401bf69b81b26f60bd85ef47f5d85275c1d268d84f68d6897431c47910160405180910390a1505050565b60008281526002602081905260408220908101548291829182919086116105145760405162461bcd60e51b815260206004820152601860248201527f42696464696e67206973207374696c6c206f6e676f696e6700000000000000006044820152606401610302565b60058101546001111561053f5760030154869450600093506001600160a01b03169150829050610726565b60008060005b60058401548110156105d457600084600501828154811061056857610568610ba2565b60009182526020808320909101546001600160a01b0316808352600488019091526040909120600101549091508310156105c1576001600160a01b03811660009081526004860160205260409020600101549093509150825b50806105cc81610bce565b915050610545565b5060038301546040516001600160a01b039091169082156108fc029083906000818181858888f19350505050158015610611573d6000803e3d6000fd5b5060005b600584015481101561070b57826001600160a01b031684600501828154811061064057610640610ba2565b6000918252602090912001546001600160a01b0316146106f95783600501818154811061066f5761066f610ba2565b60009182526020822001546005860180546001600160a01b03909216926108fc92600489019290869081106106a6576106a6610ba2565b60009182526020808320909101546001600160a01b03168352820192909252604090810182206001015490518115909302929091818181858888f193505050501580156106f7573d6000803e3d6000fd5b505b8061070381610bce565b915050610615565b506003909201548896509094506001600160a01b0316925090505b92959194509250565b600081815260026020908152604080832060058101805483518186028101860190945280845291938593849390929183018282801561079757602002820191906000526020600020905b81546001600160a01b03168152600190910190602001808311610779575b5050505050905060005b81518110156108165760008460040160008484815181106107c4576107c4610ba2565b60200260200101516001600160a01b03166001600160a01b03168152602001908152602001600020600101541115610804578261080081610bce565b9350505b8061080e81610bce565b9150506107a1565b5090949350505050565b600061082a610a14565b50600081815260026020819052604090912001545b919050565b61084c610a14565b6108566000610a41565b565b60008181526002602081905260408220828155600181018390559081018290556003810180546001600160a01b0319169055906108986005830182610a91565b505050565b6108a5610a14565b60008481526002602081905260409091200154156109115760405162461bcd60e51b8152602060048201526024808201527f42696464696e6720616c72656164792065786973747320666f722074686973206044820152631b185b9960e21b6064820152608401610302565b61091c83603c610be7565b6109269042610c04565b6000858152600260208190526040909120958655600186019390935591840191909155600390920180546001600160a01b0319166001600160a01b039093169290921790915550565b60008281526002602090815260408083206001600160a01b03851684526004019091528120600101548190156109c8575050600082815260026020908152604080832033845260040190915290206001908101546109cf565b5060009050805b9250929050565b6109de610a14565b6001600160a01b038116610a0857604051631e4fbdf760e01b815260006004820152602401610302565b610a1181610a41565b50565b6000546001600160a01b031633146108565760405163118cdaa760e01b8152336004820152602401610302565b600080546001600160a01b038381166001600160a01b0319831681178455604051919092169283917f8be0079c531659141344cd1fd0a4f28419497f9722a3daafe3b4186f6b6457e09190a35050565b5080546000825590600052602060002090810190610a1191905b80821115610abf5760008155600101610aab565b5090565b80356001600160a01b038116811461083f57600080fd5b60008060408385031215610aed57600080fd5b82359150610afd60208401610ac3565b90509250929050565b600060208284031215610b1857600080fd5b5035919050565b60008060408385031215610b3257600080fd5b50508035926020909101359150565b60008060008060808587031215610b5757600080fd5b843593506020850135925060408501359150610b7560608601610ac3565b905092959194509250565b600060208284031215610b9257600080fd5b610b9b82610ac3565b9392505050565b634e487b7160e01b600052603260045260246000fd5b634e487b7160e01b600052601160045260246000fd5b600060018201610be057610be0610bb8565b5060010190565b8082028115828204841417610bfe57610bfe610bb8565b92915050565b80820180821115610bfe57610bfe610bb856fea2646970667358221220b3a6a45eda2dbf25effbdf33544ed486032da6f8ccbb680905d5557ea08357de64736f6c63430008140033",
  "linkReferences": {},
  "deployedLinkReferences": {}
}